:060000000A128A11F02F24
:10068E00831603131114111C08004A2B831603132F
:10069E001115111D0800502B8316031391121116FC
:1006AE00111E0800572B8316031391161116111ED7
:1006BE0008005E2BFC346034DA34F2346634B6341F
:1006CE00BE34E034FE34F63483160313111C911835
:1006DE006B2B111D91196B2B141D08006B2B7008C1
:1006EE007104031908000130F0020030031CF103FD
:1006FE00F102762BF0007008831203139300831619
:10070E0003131418862B0A128A116B230800831602
:10071E0003138715071694172830831203139400BA
:10072E0032308316031393000800F300F201731C9A
:10073E00A42B7008F1007108F2070310F00D0310DE
:10074E00F30C7308031D9E2B720808007E088A00A6
:10075E007F088200AD230A128A118000840A0408E1
:10076E007D0603190034FF0A0319FE0AB12B720825
:10077E007304031908002C30F0000130F1000A1246
:10078E008A1176230A128A110130F2020030031CFC
:10079E00F303F302BE2BF7007708F039F400740868
:1007AE00F600F60E0F30F6050F307705F4000A301E
:1007BE00F5007508F00076080A128A119C2374075A
:1007CE000800F100F201831603139115141CED2B92
:1007DE00831203131308F0007008F2000A128A1134
:1007EE006B230A128A117103031D032C0A128A113C
:1007FE0053230A128A11062C0A128A115A237208DE
:10080E0008000A128A118E230A128A110A128A11FC
:10081E0047230A128A11D0300A128A1181230A1232
:10082E008A1107300A128A1181230A128A110030A6
:10083E000A128A1181230A128A110A128A114D2371
:10084E00080083120313A1000A30F0000030F100FB
:10085E002108F900FA017908F2007A08F3000A1269
:10086E008A11AD240A128A117008FB007B088312CC
:10087E000313A2002208F9007908A000A00EF030A0
:10088E00A0050A30F0000030F1002108F900FA014D
:10089E007908F2007A08F3000A128A1162247008AD
:1008AE00FB007B0883120313A2002208F9007908CB
:1008BE00A00420080800F601F31F6C2CF209F309BE
:1008CE00F20A0319F30AF601F60AF11F732CF00966
:1008DE00F109F00A0319F10A700871040319A02C2A
:1008EE00F501F50AF11B872C01300310F00DF10D07
:1008FE00FF3E031D7C2C0130F4007408F507792CA3
:10090E0071087302031D8D2C70087202031C952C46
:10091E007008F2027108031CF303F3020130031096
:10092E00F10CF00CFF3E031D962C0130F502031D59
:10093E00872C76080319A82CF209F309F20A031979
:10094E00F30A7308F1007208F0000800F601F11FB7
:10095E00B72CF009F109F00A0319F10AF601F60AAB
:10096E00F31FC22CF209F309F20A0319F30A01303C
:10097E00F4007408F606F701F80170087104031903
:10098E00F92CF501F50AF11BD82C01300310F00DEE
:10099E00F10DFF3E031DCD2C0130F4007408F50758
:1009AE00CA2C01300310F70DF80DFF3E031DD92C94
:1009BE0071087302031DE52C70087202031CEE2CE5
:1009CE007008F2027108031CF303F302771401306E
:1009DE000310F10CF00CFF3E031DEF2C0130F5025D
:1009EE00031DD82C76080319012DF709F809F70A0B
:1009FE000319F80A7808F1007708F0000800F100F2
:100A0E000A128A1147230A128A11D0300A128A1149
:100A1E0081230A128A1100300A128A1181230A12C6
:100A2E008A1171088400831300080A128A11812327
:100A3E000A128A11710A8400831300080A128A119D
:100A4E0081230A128A117108023E84008313000862
:100A5E000A128A1181230A128A117108033E840038
:100A6E00831300080A128A1181230A128A1171084F
:100A7E00043E8400831300080A128A1181230A128D
:100A8E008A117108053E8400831300080A128A1128
:100A9E0081230A128A117108063E8400831300080E
:100AAE000A128A1181230A128A110A128A114D23FF
:100ABE000800F8007608353E840083130008831280
:100ACE00031388003C30F70077088604DF30F70008
:100ADE00770886050530F2000030F3000A128A11FD
:100AEE00BE230A128A117508353E8400831300084E
:100AFE008312031388003C30F70077088604EF302A
:100B0E00F700770886050530F2000030F3000A1270
:100B1E008A11BE230A128A117408353E840083138B
:100B2E0000088312031388003C30F7007708860410
:100B3E00F730F700770886050530F2000030F30035
:100B4E000A128A11BE230A128A117808353E8400D1
:100B5E00831300088312031388003C30F7007708D4
:100B6E008604FB30F700770886050530F20000306A
:100B7E00F3000A128A11BE230800F4000A128A1129
:100B8E0047230A128A11D0300A128A1181230A12BF
:100B9E008A1100300A128A1181230A128A110A124E
:100BAE008A114D230A128A110A128A1147230A1238
:100BBE008A11D1300A128A1181230A128A11013048
:100BCE000A128A11E8230A128A11F30074088400AB
:100BDE0073088313800001300A128A11E8230A1267
:100BEE008A11F300740A84007308831380000130A5
:100BFE000A128A11E8230A128A11F3007408023EBF
:100C0E00840073088313800001300A128A11E823CE
:100C1E000A128A11F3007408033E840073088313CA
:100C2E00800001300A128A11E8230A128A11F30099
:100C3E007408043E840073088313800001300A1286
:100C4E008A11E8230A128A11F3007408053E840003
:100C5E0073088313800000300A128A11E8230A12E7
:100C6E008A11F3007408063E840073088313800013
:100C7E000A128A114D2308008316031387120713D5
:100C8E008713880106148614061186110612861221
:100C9E008613091015149514151581138316031751
:100CAE0009120911891289118910091088128316E7
:100CBE0003139601FF30831203138600A701A801C8
:100CCE00A901AA01AB01A601AC01AD010A128A115C
:100CDE0008240A128A1183120313B0010830A300EC
:100CEE002308AF003030A3002308AE003130A3003C
:100CFE002308B2001230A3002308B3001630A3005D
:100D0E002308B4000530A3002308B100382F2D03AB
:100D1E00031D9A2EAD010130A3002308A7073C3016
:100D2E0027020318A7010230A3002308F4000330A2
:100D3E00A4002408F5000430A5002508F6000130B3
:100D4E000A128A1160250A128A11382F8312031390
:100D5E002D03031D382FAD010130A3002308A80772
:100D6E003C302802031C382FA801382F2D03031DF9
:100D7E00382FAD010130A3002308A9070D30290239
:100D8E00031C382FA901382F2D03031D382FAD0159
:100D9E000130A3002308AA071F302A02031C382F94
:100DAE00AA01382F2D03031D382FAD010130A300EA
:100DBE002308AB070D302B02031C382FAB01382F45
:100DCE002D03031D382FAD010130A3002308A60704
:100DDE00382F27080A128A1128240A128A11831220
:100DEE000313A3002308AE0028080A128A11282430
:100DFE000A128A1183120313A3002308AF002908D5
:100E0E000A128A1128240A128A1183120313A300CC
:100E1E002308B0002A080A128A1128240A128A11FD
:100E2E0083120313A3002308B2002B080A128A119F
:100E3E0028240A128A1183120313A3002308B30075
:100E4E0026080A128A1128240A128A118312031301
:100E5E00A3002308B4002E300A128A1106250A12A6
:100E6E008A118312031386184B2F6430F200003060
:100E7E00F3000A128A11BE230A128A118312031377
:100E8E0086184B2FAC01AC0A2C080319DD2F8618DF
:100E9E00652F6430F2000030F3000A128A11BE236F
:100EAE000A128A11831203138618652F0130A300CC
:100EBE002308AC0709302C020318AC010618762F54
:100ECE006430F2000030F3000A128A11BE230A12B7
:100EDE008A11831203130618762FAD01AD0A2E3038
:100EEE000A128A11C4250A128A11831203132E08BC
:100EFE000A128A11D2230A128A1183120313A30033
:100F0E002308A7002F080A128A11D2230A128A1167
:100F1E0083120313A3002308A80030080A128A11B3
:100F2E00D2230A128A1183120313A3002308A900E5
:100F3E0032080A128A11D2230A128A11831203135B
:100F4E00A3002308AA0033080A128A11D2230A1218
:100F5E008A1183120313A3002308AB0034080A126C
:100F6E008A11D2230A128A1183120313A3002308B3
:100F7E00A600831203132C08013A03198E2E033A8E
:100F8E000319AD2E013A0319BD2E073A0319CB2EC4
:100F9E00013A0319D92E033A0319E72E013A031920
:100FAE00F02E0F3A0319F02E382F382F0630A300EB
:100FBE002308F4000730A4002408F5000830A5002B
:100FCE002508F60005300A128A1160250A128A11C8
:100FDE00382F83133F30FD000330FE006130FF00D9
:100FEE00353084000A128A11B12383010A128A1144
:020FFE00432E80
:04400E00F2ECFFFFD2
:00000001FF
