:060000000A128A11F02F24
:10090400831603131114111C0800852C831603137A
:100914001115111D08008B2C831603139112111647
:10092400111E0800922C8316031391161116111E22
:100934000800992CC034F934A434B0349934923476
:100944008234F83480349034700871040319080038
:100954000130F0020030031CF103F102A62C8316CF
:100964000313111C9118B12C111D9119B12C141DD4
:100974000800B12CF000700883120313930083164F
:1009840003131418C12C0A128A11B1240800831607
:100994000313871507169417283083120313940042
:1009A400323083160313930008007E088A007F0800
:1009B4008200D7240A128A118000840A04087D0662
:1009C40003190034FF0A0319FE0ADB2C72087304AE
:1009D400031908002C30F0000130F1000A128A11CA
:1009E400A6240A128A110130F2020030031CF30318
:1009F400F302E82CF100F201831603139115141C81
:100A0400012D831203131308F0007008F2000A1278
:100A14008A11B1240A128A117103031D172D0A12B7
:100A24008A118E240A128A111A2D0A128A11952407
:100A3400720808000A128A11C9240A128A110A12B9
:100A44008A1182240A128A11D0300A128A11BC2413
:100A54000A128A1107300A128A11BC240A128A1156
:100A640000300A128A11BC240A128A110A128A114D
:100A740088240800F300F401083074020318080005
:100A84007308F2007208F50075088039F2007208E4
:100A9400F50080307506031D532D8312031387164A
:100AA400562D8312031387120310F30D07130A3014
:100AB400F0000030F1000A128A11A6240A128A11E9
:100AC4008312031307170130F2007208F4073E2D56
:100AD400F1000A128A1182240A128A11D0300A12F1
:100AE4008A11BC240A128A1100300A128A11BC2409
:100AF4000A128A1171088400831300080A128A11E9
:100B0400BC240A128A11710A8400831300080A1291
:100B14008A11BC240A128A117108023E84008313CC
:100B240000080A128A11BC240A128A117108033EB1
:100B34008400831300080A128A11BC240A128A1141
:100B44007108043E8400831300080A128A11BC242D
:100B54000A128A117108053E8400831300080A12E0
:100B64008A11BC240A128A117108063E8400831378
:100B740000080A128A11BC240A128A110A128A1164
:100B840088240800F4000A128A1182240A128A11A5
:100B9400D0300A128A11BC240A128A1100300A12B7
:100BA4008A11BC240A128A110A128A1188240A1290
:100BB4008A110A128A1182240A128A11D1300A1265
:100BC4008A11BC240A128A1101300A128A11FC24E7
:100BD4000A128A11F30074088400730883138000D6
:100BE40001300A128A11FC240A128A11F300740AD1
:100BF400840073088313800001300A128A11FC24D4
:100C04000A128A11F3007408023E840073088313E5
:100C1400800001300A128A11FC240A128A11F3009E
:100C24007408033E840073088313800001300A12A1
:100C34008A11FC240A128A11F3007408043E840009
:100C440073088313800001300A128A11FC240A12EB
:100C54008A11F3007408053E84007308831380002E
:100C640000300A128A11FC240A128A11F300740853
:100C7400063E84007308831380000A128A118824B4
:100C840008008316031387120713871308108810AC
:100C94000614861406158613151495141515811358
:100CA40083160317091209110910831603139601F9
:100CB400831203138617A101A201A301A401A501B4
:100CC400A601A001A7010A128A111C250A128A1181
:100CD4002330F600760883120313AA005930F60075
:100CE4007608A9005630F6007608A8003130F600E0
:100CF4007608AC001230F6007608AD001630F60027
:100D04007608AE000530F6007608AB0028300A12EB
:100D14008A116A250A128A11831203130618A72E50
:100D24003230F2000030F3000A128A11E8240A1269
:100D34008A11831203130618A72E0130F6007608D1
:100D4400A707073027020318A70127080319CD2E88
:100D54000619BB2E3230F2000030F3000A128A1159
:100D6400E8240A128A11831203130619BB2EA00168
:100D740086138618CD2E3230F2000030F3000A12AA
:100D84008A11E8240A128A11831203138618CD2EBD
:100D9400A001A00A861728300A128A11C4250A1253
:100DA4008A1183120313081488142808F60076089D
:100DB400A1002908F6007608A2002A08F6007608A1
:100DC400A3002C08F6007608A4002D08F600760887
:100DD400A5002E08F6007608A6002108F6000430C7
:100DE4000310F60CFF3E031DF22E76080F392F3E3A
:100DF4008400831300090A128A113C250A128A11FD
:100E0400831203132208F60004300310F60CFF3E8D
:100E1400031D072F76080F392F3E84008313000922
:100E24000A128A113C250A128A1183120313230819
:100E3400F60004300310F60CFF3E031D1C2F760849
:100E44000F392F3E8400831300090A128A113C25AE
:100E54000A128A11831203132608F60004300310C1
:100E6400F60CFF3E031D312F76080F392F3E840008
:100E7400831300090A128A113C250A128A1183126B
:100E840003132508F60004300310F60CFF3E031D7F
:100E9400462F76080F392F3E8400831300090A1267
:100EA4008A113C250A128A11831203132408F600BE
:100EB40004300310F60CFF3E031D5B2F76080F3938
:100EC4002F3E8400831300090A128A113C250A125A
:100ED4008A118312031387130A30F0000030F100E3
:100EE4000A128A11A6240A128A118312031387177D
:100EF400081088140530F2000030F3000A128A1139
:100F0400E8240A128A11831203138814081421088E
:100F14000F392F3E8400831300090A128A113C25DD
:100F24000A128A118312031322080F392F3E8400F8
:100F3400831300090A128A113C250A128A118312AA
:100F4400031323080F392F3E8400831300090A1268
:100F54008A113C250A128A118312031326080F39B9
:100F64002F3E8400831300090A128A113C250A12B9
:100F74008A118312031325080F392F3E840083132B
:100F840000090A128A113C250A128A1183120313DA
:100F940024080F392F3E8400831300090A128A1192
:100FA4003C250A128A118312031387130A30F000B6
:100FB4000030F1000A128A11A6240A128A1183123F
:100FC40003138717081488100530F2000030F3006B
:100FD4000A128A11E8240A128A118E2E83133930D8
:100FE400FD000430FE009C30FF002F3084000A1204
:0C0FF4008A11DB2483010A128A11432EAB
:04400E00F2ECFFFFD2
:00000001FF
