:060000000A128A11F02F24
:100AE400831603131114111C0800752D83160313A8
:100AF4001115111D08007B2D831603139112111675
:100B0400111E0800822D8316031391161116111E4F
:100B14000800892DFC346034DA34F2346634B63497
:100B2400BE34E034FE34F63470087104031908004E
:100B34000130F0020030031CF103F102962D8316FC
:100B44000313111C9118A12D111D9119A12D141D10
:100B54000800A12DF000700883120313930083167C
:100B640003131418B12D0A128A11A1250800831643
:100B74000313871507169417283083120313940060
:100B8400323083160313930008007E088A007F081E
:100B94008200C7250A128A118000840A04087D068F
:100BA40003190034FF0A0319FE0ACB2D72087304DB
:100BB400031908002C30F0000130F1000A128A11E8
:100BC40096250A128A110130F2020030031CF30345
:100BD400F302D82DF100F201831603139115141CAE
:100BE400F12D831203131308F0007008F2000A12A7
:100BF4008A11A1250A128A117103031D072E0A12F4
:100C04008A117E250A128A110A2E0A128A11852552
:100C1400720808000A128A11B9250A128A110A12E6
:100C24008A1172250A128A11D0300A128A11AC254F
:100C34000A128A1107300A128A11AC250A128A1183
:100C440000300A128A11AC250A128A110A128A117A
:100C540078250800F1000A128A1172250A128A11F5
:100C6400D0300A128A11AC250A128A1100300A12F5
:100C74008A11AC250A128A117108840083130008B2
:100C84000A128A11AC250A128A11710A840083138C
:100C940000080A128A11AC250A128A117108023E50
:100CA4008400831300080A128A11AC250A128A11DF
:100CB4007108033E8400831300080A128A11AC25CC
:100CC4000A128A117108043E8400831300080A1270
:100CD4008A11AC250A128A117108053E8400831317
:100CE40000080A128A11AC250A128A117108063EFC
:100CF4008400831300080A128A11AC250A128A118F
:100D04000A128A1178250800F4000A128A11722541
:100D14000A128A11D0300A128A11AC250A128A11D9
:100D240000300A128A11AC250A128A110A128A1199
:100D340078250A128A110A128A1172250A128A1156
:100D4400D1300A128A11AC250A128A1101300A1212
:100D54008A11EC250A128A11F300740884007308BE
:100D64008313800001300A128A11EC250A128A11B9
:100D7400F300740A840073088313800001300A129C
:100D84008A11EC250A128A11F3007408023E8400C9
:100D940073088313800001300A128A11EC250A12A9
:100DA4008A11F3007408033E8400730883138000DF
:100DB40001300A128A11EC250A128A11F300740810
:100DC400043E840073088313800001300A128A11E0
:100DD400EC250A128A11F3007408053E8400730896
:100DE4008313800000300A128A11EC250A128A113A
:100DF400F3007408063E84007308831380000A120B
:100E04008A117825080083160313871207138713A2
:100E1400880106148614061186110612861286139A
:100E24000910151495141515811383160317091247
:100E34000911891289118910091088128316031364
:100E44009601FF30831203138600A601A701A201B5
:100E5400A301A401A501A001A1010A128A110C2673
:100E64000A128A1183120313AA010830F5007508C7
:100E7400A9003030F5007508A8003130F500750878
:100E8400AC001230F5007508AD001630F500750899
:100E9400AE000530F5007508AB0028300A128A113F
:100EA4002C260A128A11831203138616061628307A
:100EB4000A128A1186260A128A1183120313280839
:100EC400F5007508A6002908F5007508A7002A088A
:100ED400F5007508A2002C08F5007508A3002D087C
:100EE400F5007508A4002E08F5007508A50026086D
:100EF4000F392F3E84008313000888003C30F5002E
:100F040075088604DF30F500750886050530F200A3
:100F14000030F3000A128A11D8250A128A118312AA
:100F240003132608F50004300310F50CFF3E031DDF
:100F3400962F75080F392F3E84008313000888000C
:100F44003C30F50075088604EF30F5007508860519
:100F54000530F2000030F3000A128A11D8250A1273
:100F64008A118312031327080F392F3E8400831339
:100F7400000888003C30F50075088604F730F50059
:100F8400750886050530F2000030F3000A128A1154
:100F9400D8250A128A11831203132708F500043096
:100FA4000310F50CFF3E031DD22F75080F392F3E99
:100FB40084008313000888003C30F500750886041B
:100FC400FB30F500750886050530F2000030F300AB
:100FD4000A128A11D8250A128A11592F831339301B
:100FE400FD000530FE008C30FF002F3084000A1213
:0C0FF4008A11CB2583010A128A11052FF7
:04400E00F2ECFFFFD2
:00000001FF
