:060000000A128A11F02F24
:10062200831603131114111C0800142B83160313D1
:100632001115111D08001A2B83160313911211169E
:10064200111E0800212B8316031391161116111E79
:100652000800282BFC346034DA34F2346634B634C1
:10066200BE34E034FE34F63483160313111C9118A1
:10067200352B111D9119352B141D0800352B7008CF
:100682007104031908000130F0020030031CF10369
:10069200F102402BF00070088312031393008316BB
:1006A20003131418502B0A128A11352308008316DB
:1006B2000313871507169417283083120313940027
:1006C20032308316031393000800F300F201731C07
:1006D2006E2B7008F1007108F2070310F00D031081
:1006E200F30C7308031D682B720808007E088A0049
:1006F2007F08820077230A128A118000840A040884
:100702007D0603190034FF0A0319FE0A7B2B7208C7
:100712007304031908002C30F0000130F1000A12B2
:100722008A1140230A128A110130F2020030031C9E
:10073200F303F302882BF7007708F039F40074080A
:10074200F600F60E0F30F6050F307705F4000A308A
:10075200F5007508F00076080A128A1166237407FC
:100762000800F100F201831603139115141CB72B34
:10077200831203131308F0007008F2000A128A11A0
:1007820035230A128A117103031DCD2B0A128A1115
:100792001D230A128A11D02B0A128A1124237208ED
:1007A20008000A128A1158230A128A110A128A119F
:1007B20011230A128A11D0300A128A114B230A120B
:1007C2008A1107300A128A114B230A128A11003049
:1007D2000A128A114B230A128A110A128A1117234A
:1007E200080083120313A1000A30F0000030F10068
:1007F2002108F900FA017908F2007A08F3000A12D6
:100802008A1177240A128A117008FB007B0883126E
:100812000313A2002208F9007908A000A00EF0300C
:10082200A0050A30F0000030F1002108F900FA01B9
:100832007908F2007A08F3000A128A112C2470084F
:10084200FB007B0883120313A2002208F900790837
:10085200A00420080800F601F31F362CF209F30960
:10086200F20A0319F30AF601F60AF11F3D2CF00908
:10087200F109F00A0319F10A7008710403196A2CCC
:10088200F501F50AF11B512C01300310F00DF10DA9
:10089200FF3E031D462C0130F4007408F507432C7B
:1008A20071087302031D572C70087202031C5F2C1F
:1008B2007008F2027108031CF303F3020130031003
:1008C200F10CF00CFF3E031D602C0130F502031DFC
:1008D200512C76080319722CF209F309F20A031952
:1008E200F30A7308F1007208F0000800F601F11F24
:1008F200812CF009F109F00A0319F10AF601F60A4E
:10090200F31F8C2CF209F309F20A0319F30A0130DE
:10091200F4007408F606F701F8017008710403196F
:10092200C32CF501F50AF11BA22C01300310F00DC6
:10093200F10DFF3E031D972C0130F4007408F507FA
:10094200942C01300310F70DF80DFF3E031DA32C6C
:1009520071087302031DAF2C70087202031CB82CBD
:100962007008F2027108031CF303F30277140130DA
:100972000310F10CF00CFF3E031DB92C0130F502FF
:10098200031DA22C76080319CB2CF709F809F70AE4
:100992000319F80A7808F1007708F0000800F1005E
:1009A2000A128A1111230A128A11D0300A128A11EC
:1009B2004B230A128A1100300A128A114B230A129F
:1009C2008A1171088400831300080A128A114B23CA
:1009D2000A128A11710A8400831300080A128A110A
:1009E2004B230A128A117108023E84008313000805
:1009F2000A128A114B230A128A117108033E8400DB
:100A0200831300080A128A114B230A128A117108F1
:100A1200043E8400831300080A128A114B230A122F
:100A22008A117108053E8400831300080A128A1194
:100A32004B230A128A117108063E840083130008B0
:100A42000A128A114B230A128A110A128A111723D7
:100A52000800FD007B08383E8400831300088312DF
:100A6200031388003C30FC007C088604DF30FC0065
:100A72007C0886050530F2000030F3000A128A1164
:100A820088230A128A117A08383E840083130008E8
:100A92008312031388003C30FC007C088604EF308C
:100AA200FC007C0886050530F2000030F3000A12D3
:100AB2008A1188230A128A117908383E8400831326
:100AC20000088312031388003C30FC007C08860473
:100AD200F730FC007C0886050530F2000030F30098
:100AE2000A128A1188230A128A117D08383E84006C
:100AF200831300088312031388003C30FC007C0837
:100B02008604FB30FC007C0886050530F2000030CC
:100B1200F3000A128A1188230800F4000A128A11CB
:100B220011230A128A11D0300A128A114B230A1297
:100B32008A1100300A128A114B230A128A110A12F0
:100B42008A1117230A128A110A128A1111230A1210
:100B52008A11D1300A128A114B230A128A110130EA
:100B62000A128A11B2230A128A11F300740884004D
:100B720073088313800001300A128A11B2230A1209
:100B82008A11F300740A8400730883138000013011
:100B92000A128A11B2230A128A11F3007408023E61
:100BA200840073088313800001300A128A11B22371
:100BB2000A128A11F3007408033E84007308831337
:100BC200800001300A128A11B2230A128A11F3003C
:100BD2007408043E840073088313800001300A12F3
:100BE2008A11B2230A128A11F3007408053E8400A6
:100BF20073088313800000300A128A11B2230A128A
:100C02008A11F3007408063E84007308831380007F
:100C12000A128A1117230800831603138712071377
:100C2200871388010614861406118611061286128D
:100C320086130910151495141515811383160317BD
:100C42000912091189128911891009108812831653
:100C520003139601FF30831203138600AE01AA012B
:100C6200AB01AC01AD01A901B001AF010A128A11B9
:100C7200D2230A128A1183120313B3010830A3008C
:100C82002308B2003030A3002308B1003130A300A2
:100C92002308B5001230A3002308B6001630A300C3
:100CA2002308B7000530A3002308B400532F2F03F5
:100CB200031D642EAF013830A3002308AE003C3080
:100CC2002E020318AE01F9010A30F0000030F100E3
:100CD2002E08A300A4012308F2002408F3000A123C
:100CE2008A1177240A128A11700883120313A5004D
:100CF2002508FA000A30F0000030F1002E08A600A4
:100D0200A7012608F2002708F3000A128A112C24F0
:100D12000A128A11700883120313A8002808FB0024
:100D22006E304E2F831203132F03031DD92EAF01F2
:100D32000130A3002308AA073C302A020318AA01A3
:100D4200D92E831203132F03031DD92EAF010130B5
:100D5200A3002308AB070D302B020318AB01D92ED9
:100D6200831203132F03031DD92EAF010130A300F9
:100D72002308AC071F302C020318AC01D92E8312B2
:100D820003132F03031DD92EAF010130A300230843
:100D9200AD070D302D020318AD01D92E83120313B6
:100DA2002F03031DD92EAF010130A3002308A90789
:100DB200F901FA01E02EF901FA0183120313300856
:100DC200A3002308FB0000304E2F831203132E08CA
:100DD2000A128A11F2230A128A1183120313A30040
:100DE2002308B1002A080A128A11F2230A128A1170
:100DF20083120313A3002308B2002B080A128A11DC
:100E0200F2230A128A1183120313A3002308B300E8
:100E12002C080A128A11F2230A128A11831203136E
:100E2200A3002308B5002D080A128A11F2230A1220
:100E32008A1183120313A3002308B60029080A1299
:100E42008A11F2230A128A1183120313A3002308C0
:100E5200B70031300A128A11D0240A128A11831281
:100E62000313B0010230A3002308F9000330A400E9
:100E72002408FA000430A5002508FB0001304E2F9B
:100E8200053083120313A3002308F900FA01FA0ABA
:100E92000730A4002408FB0002300A128A112A2516
:100EA2000A128A11831203138618682F6430F20023
:100EB2000030F3000A128A1188230A128A1183125F
:100EC20003138618682F0130A3002308B007861881
:100ED2007F2F6430F2000030F3000A128A11882357
:100EE2000A128A118312031386187F2F0130A3007E
:100EF2002308B007093030020318B0010618902FFA
:100F02006430F2000030F3000A128A1188230A12B8
:100F12008A11831203130618902FAF01AF0A3130E2
:100F22000A128A118E250A128A11831203133108BA
:100F3200A3002308AE0032080A128A119C230A1267
:100F42008A1183120313A3002308AA0033080A128A
:100F52008A119C230A128A1183120313A300230805
:100F6200AB0035080A128A119C230A128A118312D5
:100F72000313A3002308AC0036080A128A119C232B
:100F82000A128A1183120313A3002308AD00370843
:100F92000A128A119C230A128A1183120313A300D4
:100FA2002308A900831203133008013A0319582EAB
:100FB200033A0319932E013A0319A22E073A031991
:100FC200B12E013A0319C02E033A0319CF2E013A6A
:100FD2000319DC2E0F3A0319E62E412F532F8313E8
:100FE2004230FD000330FE002B30FF003830840019
:0E0FF2000A128A117B2383010A128A110D2E26
:04400E00F2ECFFFFD2
:00000001FF
